{
  "_format": "hh-sol-artifact-1",
  "contractName": "ManteiaFactory",
  "sourceName": "contracts/ManteiaFactory.sol",
  "abi": [
    {
      "inputs": [
        {
          "internalType": "address",
          "name": "_verifier",
          "type": "address"
        },
        {
          "internalType": "address",
          "name": "_vault",
          "type": "address"
        }
      ],
      "stateMutability": "nonpayable",
      "type": "constructor"
    },
    {
      "inputs": [
        {
          "internalType": "address",
          "name": "sender",
          "type": "address"
        },
        {
          "internalType": "uint256",
          "name": "tokenId",
          "type": "uint256"
        },
        {
          "internalType": "address",
          "name": "owner",
          "type": "address"
        }
      ],
      "name": "ERC721IncorrectOwner",
      "type": "error"
    },
    {
      "inputs": [
        {
          "internalType": "address",
          "name": "operator",
          "type": "address"
        },
        {
          "internalType": "uint256",
          "name": "tokenId",
          "type": "uint256"
        }
      ],
      "name": "ERC721InsufficientApproval",
      "type": "error"
    },
    {
      "inputs": [
        {
          "internalType": "address",
          "name": "approver",
          "type": "address"
        }
      ],
      "name": "ERC721InvalidApprover",
      "type": "error"
    },
    {
      "inputs": [
        {
          "internalType": "address",
          "name": "operator",
          "type": "address"
        }
      ],
      "name": "ERC721InvalidOperator",
      "type": "error"
    },
    {
      "inputs": [
        {
          "internalType": "address",
          "name": "owner",
          "type": "address"
        }
      ],
      "name": "ERC721InvalidOwner",
      "type": "error"
    },
    {
      "inputs": [
        {
          "internalType": "address",
          "name": "receiver",
          "type": "address"
        }
      ],
      "name": "ERC721InvalidReceiver",
      "type": "error"
    },
    {
      "inputs": [
        {
          "internalType": "address",
          "name": "sender",
          "type": "address"
        }
      ],
      "name": "ERC721InvalidSender",
      "type": "error"
    },
    {
      "inputs": [
        {
          "internalType": "uint256",
          "name": "tokenId",
          "type": "uint256"
        }
      ],
      "name": "ERC721NonexistentToken",
      "type": "error"
    },
    {
      "inputs": [
        {
          "internalType": "address",
          "name": "owner",
          "type": "address"
        }
      ],
      "name": "OwnableInvalidOwner",
      "type": "error"
    },
    {
      "inputs": [
        {
          "internalType": "address",
          "name": "account",
          "type": "address"
        }
      ],
      "name": "OwnableUnauthorizedAccount",
      "type": "error"
    },
    {
      "anonymous": false,
      "inputs": [
        {
          "indexed": true,
          "internalType": "address",
          "name": "owner",
          "type": "address"
        },
        {
          "indexed": true,
          "internalType": "address",
          "name": "approved",
          "type": "address"
        },
        {
          "indexed": true,
          "internalType": "uint256",
          "name": "tokenId",
          "type": "uint256"
        }
      ],
      "name": "Approval",
      "type": "event"
    },
    {
      "anonymous": false,
      "inputs": [
        {
          "indexed": true,
          "internalType": "address",
          "name": "owner",
          "type": "address"
        },
        {
          "indexed": true,
          "internalType": "address",
          "name": "operator",
          "type": "address"
        },
        {
          "indexed": false,
          "internalType": "bool",
          "name": "approved",
          "type": "bool"
        }
      ],
      "name": "ApprovalForAll",
      "type": "event"
    },
    {
      "anonymous": false,
      "inputs": [
        {
          "indexed": true,
          "internalType": "uint256",
          "name": "loanId",
          "type": "uint256"
        },
        {
          "indexed": false,
          "internalType": "address",
          "name": "borrower",
          "type": "address"
        },
        {
          "indexed": false,
          "internalType": "uint256",
          "name": "amount",
          "type": "uint256"
        },
        {
          "indexed": false,
          "internalType": "string",
          "name": "ipfsHash",
          "type": "string"
        }
      ],
      "name": "LoanRequested",
      "type": "event"
    },
    {
      "anonymous": false,
      "inputs": [
        {
          "indexed": true,
          "internalType": "address",
          "name": "previousOwner",
          "type": "address"
        },
        {
          "indexed": true,
          "internalType": "address",
          "name": "newOwner",
          "type": "address"
        }
      ],
      "name": "OwnershipTransferred",
      "type": "event"
    },
    {
      "anonymous": false,
      "inputs": [
        {
          "indexed": true,
          "internalType": "address",
          "name": "from",
          "type": "address"
        },
        {
          "indexed": true,
          "internalType": "address",
          "name": "to",
          "type": "address"
        },
        {
          "indexed": true,
          "internalType": "uint256",
          "name": "tokenId",
          "type": "uint256"
        }
      ],
      "name": "Transfer",
      "type": "event"
    },
    {
      "inputs": [
        {
          "internalType": "address",
          "name": "to",
          "type": "address"
        },
        {
          "internalType": "uint256",
          "name": "tokenId",
          "type": "uint256"
        }
      ],
      "name": "approve",
      "outputs": [],
      "stateMutability": "nonpayable",
      "type": "function"
    },
    {
      "inputs": [
        {
          "internalType": "address",
          "name": "owner",
          "type": "address"
        }
      ],
      "name": "balanceOf",
      "outputs": [
        {
          "internalType": "uint256",
          "name": "",
          "type": "uint256"
        }
      ],
      "stateMutability": "view",
      "type": "function"
    },
    {
      "inputs": [
        {
          "internalType": "uint256",
          "name": "tokenId",
          "type": "uint256"
        }
      ],
      "name": "getApproved",
      "outputs": [
        {
          "internalType": "address",
          "name": "",
          "type": "address"
        }
      ],
      "stateMutability": "view",
      "type": "function"
    },
    {
      "inputs": [
        {
          "internalType": "address",
          "name": "owner",
          "type": "address"
        },
        {
          "internalType": "address",
          "name": "operator",
          "type": "address"
        }
      ],
      "name": "isApprovedForAll",
      "outputs": [
        {
          "internalType": "bool",
          "name": "",
          "type": "bool"
        }
      ],
      "stateMutability": "view",
      "type": "function"
    },
    {
      "inputs": [
        {
          "internalType": "uint256",
          "name": "",
          "type": "uint256"
        }
      ],
      "name": "loanDataHashes",
      "outputs": [
        {
          "internalType": "bytes32",
          "name": "",
          "type": "bytes32"
        }
      ],
      "stateMutability": "view",
      "type": "function"
    },
    {
      "inputs": [],
      "name": "name",
      "outputs": [
        {
          "internalType": "string",
          "name": "",
          "type": "string"
        }
      ],
      "stateMutability": "view",
      "type": "function"
    },
    {
      "inputs": [],
      "name": "nextLoanId",
      "outputs": [
        {
          "internalType": "uint256",
          "name": "",
          "type": "uint256"
        }
      ],
      "stateMutability": "view",
      "type": "function"
    },
    {
      "inputs": [],
      "name": "owner",
      "outputs": [
        {
          "internalType": "address",
          "name": "",
          "type": "address"
        }
      ],
      "stateMutability": "view",
      "type": "function"
    },
    {
      "inputs": [
        {
          "internalType": "uint256",
          "name": "tokenId",
          "type": "uint256"
        }
      ],
      "name": "ownerOf",
      "outputs": [
        {
          "internalType": "address",
          "name": "",
          "type": "address"
        }
      ],
      "stateMutability": "view",
      "type": "function"
    },
    {
      "inputs": [],
      "name": "renounceOwnership",
      "outputs": [],
      "stateMutability": "nonpayable",
      "type": "function"
    },
    {
      "inputs": [
        {
          "internalType": "uint256[2]",
          "name": "a",
          "type": "uint256[2]"
        },
        {
          "internalType": "uint256[2][2]",
          "name": "b",
          "type": "uint256[2][2]"
        },
        {
          "internalType": "uint256[2]",
          "name": "c",
          "type": "uint256[2]"
        },
        {
          "internalType": "uint256[2]",
          "name": "input",
          "type": "uint256[2]"
        },
        {
          "internalType": "uint256",
          "name": "requestedAmount",
          "type": "uint256"
        },
        {
          "internalType": "string",
          "name": "ipfsHash",
          "type": "string"
        }
      ],
      "name": "requestLoan",
      "outputs": [],
      "stateMutability": "nonpayable",
      "type": "function"
    },
    {
      "inputs": [
        {
          "internalType": "address",
          "name": "from",
          "type": "address"
        },
        {
          "internalType": "address",
          "name": "to",
          "type": "address"
        },
        {
          "internalType": "uint256",
          "name": "tokenId",
          "type": "uint256"
        }
      ],
      "name": "safeTransferFrom",
      "outputs": [],
      "stateMutability": "nonpayable",
      "type": "function"
    },
    {
      "inputs": [
        {
          "internalType": "address",
          "name": "from",
          "type": "address"
        },
        {
          "internalType": "address",
          "name": "to",
          "type": "address"
        },
        {
          "internalType": "uint256",
          "name": "tokenId",
          "type": "uint256"
        },
        {
          "internalType": "bytes",
          "name": "data",
          "type": "bytes"
        }
      ],
      "name": "safeTransferFrom",
      "outputs": [],
      "stateMutability": "nonpayable",
      "type": "function"
    },
    {
      "inputs": [
        {
          "internalType": "address",
          "name": "operator",
          "type": "address"
        },
        {
          "internalType": "bool",
          "name": "approved",
          "type": "bool"
        }
      ],
      "name": "setApprovalForAll",
      "outputs": [],
      "stateMutability": "nonpayable",
      "type": "function"
    },
    {
      "inputs": [
        {
          "internalType": "bytes4",
          "name": "interfaceId",
          "type": "bytes4"
        }
      ],
      "name": "supportsInterface",
      "outputs": [
        {
          "internalType": "bool",
          "name": "",
          "type": "bool"
        }
      ],
      "stateMutability": "view",
      "type": "function"
    },
    {
      "inputs": [],
      "name": "symbol",
      "outputs": [
        {
          "internalType": "string",
          "name": "",
          "type": "string"
        }
      ],
      "stateMutability": "view",
      "type": "function"
    },
    {
      "inputs": [
        {
          "internalType": "uint256",
          "name": "tokenId",
          "type": "uint256"
        }
      ],
      "name": "tokenURI",
      "outputs": [
        {
          "internalType": "string",
          "name": "",
          "type": "string"
        }
      ],
      "stateMutability": "view",
      "type": "function"
    },
    {
      "inputs": [
        {
          "internalType": "address",
          "name": "from",
          "type": "address"
        },
        {
          "internalType": "address",
          "name": "to",
          "type": "address"
        },
        {
          "internalType": "uint256",
          "name": "tokenId",
          "type": "uint256"
        }
      ],
      "name": "transferFrom",
      "outputs": [],
      "stateMutability": "nonpayable",
      "type": "function"
    },
    {
      "inputs": [
        {
          "internalType": "address",
          "name": "newOwner",
          "type": "address"
        }
      ],
      "name": "transferOwnership",
      "outputs": [],
      "stateMutability": "nonpayable",
      "type": "function"
    },
    {
      "inputs": [
        {
          "internalType": "uint256",
          "name": "",
          "type": "uint256"
        }
      ],
      "name": "usedNullifiers",
      "outputs": [
        {
          "internalType": "bool",
          "name": "",
          "type": "bool"
        }
      ],
      "stateMutability": "view",
      "type": "function"
    },
    {
      "inputs": [],
      "name": "vault",
      "outputs": [
        {
          "internalType": "contract LendingVault",
          "name": "",
          "type": "address"
        }
      ],
      "stateMutability": "view",
      "type": "function"
    },
    {
      "inputs": [],
      "name": "verifier",
      "outputs": [
        {
          "internalType": "contract IVerifier",
          "name": "",
          "type": "address"
        }
      ],
      "stateMutability": "view",
      "type": "function"
    }
  ],
  "bytecode": "0x60806040523480156200001157600080fd5b5060405162002da738038062002da783398181016040528101906200003791906200030b565b336040518060400160405280601081526020017f4d616e74656961204c6f616e204e4654000000000000000000000000000000008152506040518060400160405280600481526020017f464c4f57000000000000000000000000000000000000000000000000000000008152508160009081620000b59190620005cc565b508060019081620000c79190620005cc565b505050600073ffffffffffffffffffffffffffffffffffffffff168173ffffffffffffffffffffffffffffffffffffffff16036200013f5760006040517f1e4fbdf7000000000000000000000000000000000000000000000000000000008152600401620001369190620006c4565b60405180910390fd5b6200015081620001db60201b60201c565b5081600760006101000a81548173ffffffffffffffffffffffffffffffffffffffff021916908373ffffffffffffffffffffffffffffffffffffffff16021790555080600860006101000a81548173ffffffffffffffffffffffffffffffffffffffff021916908373ffffffffffffffffffffffffffffffffffffffff1602179055505050620006e1565b6000600660009054906101000a900473ffffffffffffffffffffffffffffffffffffffff16905081600660006101000a81548173ffffffffffffffffffffffffffffffffffffffff021916908373ffffffffffffffffffffffffffffffffffffffff1602179055508173ffffffffffffffffffffffffffffffffffffffff168173ffffffffffffffffffffffffffffffffffffffff167f8be0079c531659141344cd1fd0a4f28419497f9722a3daafe3b4186f6b6457e060405160405180910390a35050565b600080fd5b600073ffffffffffffffffffffffffffffffffffffffff82169050919050565b6000620002d382620002a6565b9050919050565b620002e581620002c6565b8114620002f157600080fd5b50565b6000815190506200030581620002da565b92915050565b60008060408385031215620003255762000324620002a1565b5b60006200033585828601620002f4565b92505060206200034885828601620002f4565b9150509250929050565b600081519050919050565b7f4e487b7100000000000000000000000000000000000000000000000000000000600052604160045260246000fd5b7f4e487b7100000000000000000000000000000000000000000000000000000000600052602260045260246000fd5b60006002820490506001821680620003d457607f821691505b602082108103620003ea57620003e96200038c565b5b50919050565b60008190508160005260206000209050919050565b60006020601f8301049050919050565b600082821b905092915050565b600060088302620004547fffffffffffffffffffffffffffffffffffffffffffffffffffffffffffffffff8262000415565b62000460868362000415565b95508019841693508086168417925050509392505050565b6000819050919050565b6000819050919050565b6000620004ad620004a7620004a18462000478565b62000482565b62000478565b9050919050565b6000819050919050565b620004c9836200048c565b620004e1620004d882620004b4565b84845462000422565b825550505050565b600090565b620004f8620004e9565b62000505818484620004be565b505050565b5b818110156200052d5762000521600082620004ee565b6001810190506200050b565b5050565b601f8211156200057c576200054681620003f0565b620005518462000405565b8101602085101562000561578190505b62000579620005708562000405565b8301826200050a565b50505b505050565b600082821c905092915050565b6000620005a16000198460080262000581565b1980831691505092915050565b6000620005bc83836200058e565b9150826002028217905092915050565b620005d78262000352565b67ffffffffffffffff811115620005f357620005f26200035d565b5b620005ff8254620003bb565b6200060c82828562000531565b600060209050601f8311600181146200064457600084156200062f578287015190505b6200063b8582620005ae565b865550620006ab565b601f1984166200065486620003f0565b60005b828110156200067e5784890151825560018201915060208501945060208101905062000657565b868310156200069e57848901516200069a601f8916826200058e565b8355505b6001600288020188555050505b505050505050565b620006be81620002c6565b82525050565b6000602082019050620006db6000830184620006b3565b92915050565b6126b680620006f16000396000f3fe608060405234801561001057600080fd5b50600436106101425760003560e01c806387c51459116100b8578063aad240611161007c578063aad2406114610363578063b88d4fde14610393578063c87b56dd146103af578063e985e9c5146103df578063f2fde38b1461040f578063fbfa77cf1461042b57610142565b806387c51459146102d15780638da5cb5b146102ef57806395d89b411461030d578063a22cb4651461032b578063aa1df9121461034757610142565b80632b7ac3f31161010a5780632b7ac3f3146101fd57806342842e0e1461021b57806346766186146102375780636352211e1461026757806370a0823114610297578063715018a6146102c757610142565b806301ffc9a71461014757806306fdde0314610177578063081812fc14610195578063095ea7b3146101c557806323b872dd146101e1575b600080fd5b610161600480360381019061015c9190611b40565b610449565b60405161016e9190611b88565b60405180910390f35b61017f61052b565b60405161018c9190611c33565b60405180910390f35b6101af60048036038101906101aa9190611c8b565b6105bd565b6040516101bc9190611cf9565b60405180910390f35b6101df60048036038101906101da9190611d40565b6105d9565b005b6101fb60048036038101906101f69190611d80565b6105ef565b005b6102056106f1565b6040516102129190611e32565b60405180910390f35b61023560048036038101906102309190611d80565b610717565b005b610251600480360381019061024c9190611c8b565b610737565b60405161025e9190611e66565b60405180910390f35b610281600480360381019061027c9190611c8b565b61074f565b60405161028e9190611cf9565b60405180910390f35b6102b160048036038101906102ac9190611e81565b610761565b6040516102be9190611ebd565b60405180910390f35b6102cf61081b565b005b6102d961082f565b6040516102e69190611ebd565b60405180910390f35b6102f7610835565b6040516103049190611cf9565b60405180910390f35b61031561085f565b6040516103229190611c33565b60405180910390f35b61034560048036038101906103409190611f04565b6108f1565b005b610361600480360381019061035c9190611fed565b610907565b005b61037d60048036038101906103789190611c8b565b610a5e565b60405161038a9190611b88565b60405180910390f35b6103ad60048036038101906103a891906121d0565b610a7e565b005b6103c960048036038101906103c49190611c8b565b610aa3565b6040516103d69190611c33565b60405180910390f35b6103f960048036038101906103f49190612253565b610b0c565b6040516104069190611b88565b60405180910390f35b61042960048036038101906104249190611e81565b610ba0565b005b610433610c26565b60405161044091906122b4565b60405180910390f35b60007f80ac58cd000000000000000000000000000000000000000000000000000000007bffffffffffffffffffffffffffffffffffffffffffffffffffffffff1916827bffffffffffffffffffffffffffffffffffffffffffffffffffffffff1916148061051457507f5b5e139f000000000000000000000000000000000000000000000000000000007bffffffffffffffffffffffffffffffffffffffffffffffffffffffff1916827bffffffffffffffffffffffffffffffffffffffffffffffffffffffff1916145b80610524575061052382610c4c565b5b9050919050565b60606000805461053a906122fe565b80601f0160208091040260200160405190810160405280929190818152602001828054610566906122fe565b80156105b35780601f10610588576101008083540402835291602001916105b3565b820191906000526020600020905b81548152906001019060200180831161059657829003601f168201915b5050505050905090565b60006105c882610cb6565b506105d282610d3e565b9050919050565b6105eb82826105e6610d7b565b610d83565b5050565b600073ffffffffffffffffffffffffffffffffffffffff168273ffffffffffffffffffffffffffffffffffffffff16036106615760006040517f64a0ae920000000000000000000000000000000000000000000000000000000081526004016106589190611cf9565b60405180910390fd5b60006106758383610670610d7b565b610d95565b90508373ffffffffffffffffffffffffffffffffffffffff168173ffffffffffffffffffffffffffffffffffffffff16146106eb578382826040517f64283d7b0000000000000000000000000000000000000000000000000000000081526004016106e29392919061232f565b60405180910390fd5b50505050565b600760009054906101000a900473ffffffffffffffffffffffffffffffffffffffff1681565b61073283838360405180602001604052806000815250610a7e565b505050565b600a6020528060005260406000206000915090505481565b600061075a82610cb6565b9050919050565b60008073ffffffffffffffffffffffffffffffffffffffff168273ffffffffffffffffffffffffffffffffffffffff16036107d45760006040517f89c62b640000000000000000000000000000000000000000000000000000000081526004016107cb9190611cf9565b60405180910390fd5b600360008373ffffffffffffffffffffffffffffffffffffffff1673ffffffffffffffffffffffffffffffffffffffff168152602001908152602001600020549050919050565b610823610faf565b61082d6000611036565b565b60095481565b6000600660009054906101000a900473ffffffffffffffffffffffffffffffffffffffff16905090565b60606001805461086e906122fe565b80601f016020809104026020016040519081016040528092919081815260200182805461089a906122fe565b80156108e75780601f106108bc576101008083540402835291602001916108e7565b820191906000526020600020905b8154815290600101906020018083116108ca57829003601f168201915b5050505050905090565b6109036108fc610d7b565b83836110fc565b5050565b60018460006002811061091d5761091c612366565b5b602002013514610962576040517f08c379a0000000000000000000000000000000000000000000000000000000008152600401610959906123e1565b60405180910390fd5b60006009600081548092919061097790612430565b919050559050610987338261126b565b600860009054906101000a900473ffffffffffffffffffffffffffffffffffffffff1673ffffffffffffffffffffffffffffffffffffffff1663e920b1e133866040518363ffffffff1660e01b81526004016109e4929190612478565b600060405180830381600087803b1580156109fe57600080fd5b505af1158015610a12573d6000803e3d6000fd5b50505050807ffbba0893dd1f941cb4a7bb791aed3ce1ad2a008c20ef3254b2a2cf7752b199f133868686604051610a4c94939291906124ce565b60405180910390a25050505050505050565b600b6020528060005260406000206000915054906101000a900460ff1681565b610a898484846105ef565b610a9d610a94610d7b565b85858585611364565b50505050565b6060610aae82610cb6565b506000610ab9611515565b90506000815111610ad95760405180602001604052806000815250610b04565b80610ae38461152c565b604051602001610af492919061254a565b6040516020818303038152906040525b915050919050565b6000600560008473ffffffffffffffffffffffffffffffffffffffff1673ffffffffffffffffffffffffffffffffffffffff16815260200190815260200160002060008373ffffffffffffffffffffffffffffffffffffffff1673ffffffffffffffffffffffffffffffffffffffff16815260200190815260200160002060009054906101000a900460ff16905092915050565b610ba8610faf565b600073ffffffffffffffffffffffffffffffffffffffff168173ffffffffffffffffffffffffffffffffffffffff1603610c1a5760006040517f1e4fbdf7000000000000000000000000000000000000000000000000000000008152600401610c119190611cf9565b60405180910390fd5b610c2381611036565b50565b600860009054906101000a900473ffffffffffffffffffffffffffffffffffffffff1681565b60007f01ffc9a7000000000000000000000000000000000000000000000000000000007bffffffffffffffffffffffffffffffffffffffffffffffffffffffff1916827bffffffffffffffffffffffffffffffffffffffffffffffffffffffff1916149050919050565b600080610cc2836115fa565b9050600073ffffffffffffffffffffffffffffffffffffffff168173ffffffffffffffffffffffffffffffffffffffff1603610d3557826040517f7e273289000000000000000000000000000000000000000000000000000000008152600401610d2c9190611ebd565b60405180910390fd5b80915050919050565b60006004600083815260200190815260200160002060009054906101000a900473ffffffffffffffffffffffffffffffffffffffff169050919050565b600033905090565b610d908383836001611637565b505050565b600080610da1846115fa565b9050600073ffffffffffffffffffffffffffffffffffffffff168373ffffffffffffffffffffffffffffffffffffffff1614610de357610de28184866117fc565b5b600073ffffffffffffffffffffffffffffffffffffffff168173ffffffffffffffffffffffffffffffffffffffff1614610e7457610e25600085600080611637565b6001600360008373ffffffffffffffffffffffffffffffffffffffff1673ffffffffffffffffffffffffffffffffffffffff168152602001908152602001600020600082825403925050819055505b600073ffffffffffffffffffffffffffffffffffffffff168573ffffffffffffffffffffffffffffffffffffffff1614610ef7576001600360008773ffffffffffffffffffffffffffffffffffffffff1673ffffffffffffffffffffffffffffffffffffffff168152602001908152602001600020600082825401925050819055505b846002600086815260200190815260200160002060006101000a81548173ffffffffffffffffffffffffffffffffffffffff021916908373ffffffffffffffffffffffffffffffffffffffff160217905550838573ffffffffffffffffffffffffffffffffffffffff168273ffffffffffffffffffffffffffffffffffffffff167fddf252ad1be2c89b69c2b068fc378daa952ba7f163c4a11628f55a4df523b3ef60405160405180910390a4809150509392505050565b610fb7610d7b565b73ffffffffffffffffffffffffffffffffffffffff16610fd5610835565b73ffffffffffffffffffffffffffffffffffffffff161461103457610ff8610d7b565b6040517f118cdaa700000000000000000000000000000000000000000000000000000000815260040161102b9190611cf9565b60405180910390fd5b565b6000600660009054906101000a900473ffffffffffffffffffffffffffffffffffffffff16905081600660006101000a81548173ffffffffffffffffffffffffffffffffffffffff021916908373ffffffffffffffffffffffffffffffffffffffff1602179055508173ffffffffffffffffffffffffffffffffffffffff168173ffffffffffffffffffffffffffffffffffffffff167f8be0079c531659141344cd1fd0a4f28419497f9722a3daafe3b4186f6b6457e060405160405180910390a35050565b600073ffffffffffffffffffffffffffffffffffffffff168273ffffffffffffffffffffffffffffffffffffffff160361116d57816040517f5b08ba180000000000000000000000000000000000000000000000000000000081526004016111649190611cf9565b60405180910390fd5b80600560008573ffffffffffffffffffffffffffffffffffffffff1673ffffffffffffffffffffffffffffffffffffffff16815260200190815260200160002060008473ffffffffffffffffffffffffffffffffffffffff1673ffffffffffffffffffffffffffffffffffffffff16815260200190815260200160002060006101000a81548160ff0219169083151502179055508173ffffffffffffffffffffffffffffffffffffffff168373ffffffffffffffffffffffffffffffffffffffff167f17307eab39ab6107e8899845ad3d59bd9653f200f220920489ca2b5937696c318360405161125e9190611b88565b60405180910390a3505050565b600073ffffffffffffffffffffffffffffffffffffffff168273ffffffffffffffffffffffffffffffffffffffff16036112dd5760006040517f64a0ae920000000000000000000000000000000000000000000000000000000081526004016112d49190611cf9565b60405180910390fd5b60006112eb83836000610d95565b9050600073ffffffffffffffffffffffffffffffffffffffff168173ffffffffffffffffffffffffffffffffffffffff161461135f5760006040517f73c6ac6e0000000000000000000000000000000000000000000000000000000081526004016113569190611cf9565b60405180910390fd5b505050565b60008373ffffffffffffffffffffffffffffffffffffffff163b111561150e578273ffffffffffffffffffffffffffffffffffffffff1663150b7a02868685856040518563ffffffff1660e01b81526004016113c394939291906125c3565b6020604051808303816000875af19250505080156113ff57506040513d601f19601f820116820180604052508101906113fc9190612624565b60015b611483573d806000811461142f576040519150601f19603f3d011682016040523d82523d6000602084013e611434565b606091505b50600081510361147b57836040517f64a0ae920000000000000000000000000000000000000000000000000000000081526004016114729190611cf9565b60405180910390fd5b805160208201fd5b63150b7a0260e01b7bffffffffffffffffffffffffffffffffffffffffffffffffffffffff1916817bffffffffffffffffffffffffffffffffffffffffffffffffffffffff19161461150c57836040517f64a0ae920000000000000000000000000000000000000000000000000000000081526004016115039190611cf9565b60405180910390fd5b505b5050505050565b606060405180602001604052806000815250905090565b60606000600161153b846118c0565b01905060008167ffffffffffffffff81111561155a576115596120a5565b5b6040519080825280601f01601f19166020018201604052801561158c5781602001600182028036833780820191505090505b509050600082602083010190505b6001156115ef578080600190039150507f3031323334353637383961626364656600000000000000000000000000000000600a86061a8153600a85816115e3576115e2612651565b5b0494506000850361159a575b819350505050919050565b60006002600083815260200190815260200160002060009054906101000a900473ffffffffffffffffffffffffffffffffffffffff169050919050565b80806116705750600073ffffffffffffffffffffffffffffffffffffffff168273ffffffffffffffffffffffffffffffffffffffff1614155b156117a457600061168084610cb6565b9050600073ffffffffffffffffffffffffffffffffffffffff168373ffffffffffffffffffffffffffffffffffffffff16141580156116eb57508273ffffffffffffffffffffffffffffffffffffffff168173ffffffffffffffffffffffffffffffffffffffff1614155b80156116fe57506116fc8184610b0c565b155b1561174057826040517fa9fbf51f0000000000000000000000000000000000000000000000000000000081526004016117379190611cf9565b60405180910390fd5b81156117a257838573ffffffffffffffffffffffffffffffffffffffff168273ffffffffffffffffffffffffffffffffffffffff167f8c5be1e5ebec7d5bd14f71427d1e84f3dd0314c0f7b2291e5b200ac8c7c3b92560405160405180910390a45b505b836004600085815260200190815260200160002060006101000a81548173ffffffffffffffffffffffffffffffffffffffff021916908373ffffffffffffffffffffffffffffffffffffffff16021790555050505050565b611807838383611a13565b6118bb57600073ffffffffffffffffffffffffffffffffffffffff168373ffffffffffffffffffffffffffffffffffffffff160361187c57806040517f7e2732890000000000000000000000000000000000000000000000000000000081526004016118739190611ebd565b60405180910390fd5b81816040517f177e802f0000000000000000000000000000000000000000000000000000000081526004016118b2929190612478565b60405180910390fd5b505050565b600080600090507a184f03e93ff9f4daa797ed6e38ed64bf6a1f010000000000000000831061191e577a184f03e93ff9f4daa797ed6e38ed64bf6a1f010000000000000000838161191457611913612651565b5b0492506040810190505b6d04ee2d6d415b85acef8100000000831061195b576d04ee2d6d415b85acef8100000000838161195157611950612651565b5b0492506020810190505b662386f26fc10000831061198a57662386f26fc1000083816119805761197f612651565b5b0492506010810190505b6305f5e10083106119b3576305f5e10083816119a9576119a8612651565b5b0492506008810190505b61271083106119d85761271083816119ce576119cd612651565b5b0492506004810190505b606483106119fb57606483816119f1576119f0612651565b5b0492506002810190505b600a8310611a0a576001810190505b80915050919050565b60008073ffffffffffffffffffffffffffffffffffffffff168373ffffffffffffffffffffffffffffffffffffffff1614158015611acb57508273ffffffffffffffffffffffffffffffffffffffff168473ffffffffffffffffffffffffffffffffffffffff161480611a8c5750611a8b8484610b0c565b5b80611aca57508273ffffffffffffffffffffffffffffffffffffffff16611ab283610d3e565b73ffffffffffffffffffffffffffffffffffffffff16145b5b90509392505050565b6000604051905090565b600080fd5b600080fd5b60007fffffffff0000000000000000000000000000000000000000000000000000000082169050919050565b611b1d81611ae8565b8114611b2857600080fd5b50565b600081359050611b3a81611b14565b92915050565b600060208284031215611b5657611b55611ade565b5b6000611b6484828501611b2b565b91505092915050565b60008115159050919050565b611b8281611b6d565b82525050565b6000602082019050611b9d6000830184611b79565b92915050565b600081519050919050565b600082825260208201905092915050565b60005b83811015611bdd578082015181840152602081019050611bc2565b60008484015250505050565b6000601f19601f8301169050919050565b6000611c0582611ba3565b611c0f8185611bae565b9350611c1f818560208601611bbf565b611c2881611be9565b840191505092915050565b60006020820190508181036000830152611c4d8184611bfa565b905092915050565b6000819050919050565b611c6881611c55565b8114611c7357600080fd5b50565b600081359050611c8581611c5f565b92915050565b600060208284031215611ca157611ca0611ade565b5b6000611caf84828501611c76565b91505092915050565b600073ffffffffffffffffffffffffffffffffffffffff82169050919050565b6000611ce382611cb8565b9050919050565b611cf381611cd8565b82525050565b6000602082019050611d0e6000830184611cea565b92915050565b611d1d81611cd8565b8114611d2857600080fd5b50565b600081359050611d3a81611d14565b92915050565b60008060408385031215611d5757611d56611ade565b5b6000611d6585828601611d2b565b9250506020611d7685828601611c76565b9150509250929050565b600080600060608486031215611d9957611d98611ade565b5b6000611da786828701611d2b565b9350506020611db886828701611d2b565b9250506040611dc986828701611c76565b9150509250925092565b6000819050919050565b6000611df8611df3611dee84611cb8565b611dd3565b611cb8565b9050919050565b6000611e0a82611ddd565b9050919050565b6000611e1c82611dff565b9050919050565b611e2c81611e11565b82525050565b6000602082019050611e476000830184611e23565b92915050565b6000819050919050565b611e6081611e4d565b82525050565b6000602082019050611e7b6000830184611e57565b92915050565b600060208284031215611e9757611e96611ade565b5b6000611ea584828501611d2b565b91505092915050565b611eb781611c55565b82525050565b6000602082019050611ed26000830184611eae565b92915050565b611ee181611b6d565b8114611eec57600080fd5b50565b600081359050611efe81611ed8565b92915050565b60008060408385031215611f1b57611f1a611ade565b5b6000611f2985828601611d2b565b9250506020611f3a85828601611eef565b9150509250929050565b600080fd5b600081905082602060020282011115611f6557611f64611f44565b5b92915050565b600081905082604060020282011115611f8757611f86611f44565b5b92915050565b600080fd5b600080fd5b60008083601f840112611fad57611fac611f8d565b5b8235905067ffffffffffffffff811115611fca57611fc9611f92565b5b602083019150836001820283011115611fe657611fe5611f44565b5b9250929050565b6000806000806000806000610180888a03121561200d5761200c611ade565b5b600061201b8a828b01611f49565b975050604061202c8a828b01611f6b565b96505060c061203d8a828b01611f49565b95505061010061204f8a828b01611f49565b9450506101406120618a828b01611c76565b93505061016088013567ffffffffffffffff81111561208357612082611ae3565b5b61208f8a828b01611f97565b925092505092959891949750929550565b600080fd5b7f4e487b7100000000000000000000000000000000000000000000000000000000600052604160045260246000fd5b6120dd82611be9565b810181811067ffffffffffffffff821117156120fc576120fb6120a5565b5b80604052505050565b600061210f611ad4565b905061211b82826120d4565b919050565b600067ffffffffffffffff82111561213b5761213a6120a5565b5b61214482611be9565b9050602081019050919050565b82818337600083830152505050565b600061217361216e84612120565b612105565b90508281526020810184848401111561218f5761218e6120a0565b5b61219a848285612151565b509392505050565b600082601f8301126121b7576121b6611f8d565b5b81356121c7848260208601612160565b91505092915050565b600080600080608085870312156121ea576121e9611ade565b5b60006121f887828801611d2b565b945050602061220987828801611d2b565b935050604061221a87828801611c76565b925050606085013567ffffffffffffffff81111561223b5761223a611ae3565b5b612247878288016121a2565b91505092959194509250565b6000806040838503121561226a57612269611ade565b5b600061227885828601611d2b565b925050602061228985828601611d2b565b9150509250929050565b600061229e82611dff565b9050919050565b6122ae81612293565b82525050565b60006020820190506122c960008301846122a5565b92915050565b7f4e487b7100000000000000000000000000000000000000000000000000000000600052602260045260246000fd5b6000600282049050600182168061231657607f821691505b602082108103612329576123286122cf565b5b50919050565b60006060820190506123446000830186611cea565b6123516020830185611eae565b61235e6040830184611cea565b949350505050565b7f4e487b7100000000000000000000000000000000000000000000000000000000600052603260045260246000fd5b7f426f72726f776572206e6f74207175616c696669656400000000000000000000600082015250565b60006123cb601683611bae565b91506123d682612395565b602082019050919050565b600060208201905081810360008301526123fa816123be565b9050919050565b7f4e487b7100000000000000000000000000000000000000000000000000000000600052601160045260246000fd5b600061243b82611c55565b91507fffffffffffffffffffffffffffffffffffffffffffffffffffffffffffffffff820361246d5761246c612401565b5b600182019050919050565b600060408201905061248d6000830185611cea565b61249a6020830184611eae565b9392505050565b60006124ad8385611bae565b93506124ba838584612151565b6124c383611be9565b840190509392505050565b60006060820190506124e36000830187611cea565b6124f06020830186611eae565b81810360408301526125038184866124a1565b905095945050505050565b600081905092915050565b600061252482611ba3565b61252e818561250e565b935061253e818560208601611bbf565b80840191505092915050565b60006125568285612519565b91506125628284612519565b91508190509392505050565b600081519050919050565b600082825260208201905092915050565b60006125958261256e565b61259f8185612579565b93506125af818560208601611bbf565b6125b881611be9565b840191505092915050565b60006080820190506125d86000830187611cea565b6125e56020830186611cea565b6125f26040830185611eae565b8181036060830152612604818461258a565b905095945050505050565b60008151905061261e81611b14565b92915050565b60006020828403121561263a57612639611ade565b5b60006126488482850161260f565b91505092915050565b7f4e487b7100000000000000000000000000000000000000000000000000000000600052601260045260246000fdfea26469706673582212201eef0e4d65e8f2947af83321e872137678b6925158cafc864aa47f770d603ad964736f6c63430008140033",
  "linkReferences": {},
  "deployedLinkReferences": {}
}