{
  "_format": "hh-sol-artifact-1",
  "contractName": "LendingVault",
  "sourceName": "contracts/LendingVault.sol",
  "abi": [
    {
      "inputs": [
        {
          "internalType": "address",
          "name": "_usdc",
          "type": "address"
        }
      ],
      "stateMutability": "nonpayable",
      "type": "constructor"
    },
    {
      "inputs": [
        {
          "internalType": "address",
          "name": "owner",
          "type": "address"
        }
      ],
      "name": "OwnableInvalidOwner",
      "type": "error"
    },
    {
      "inputs": [
        {
          "internalType": "address",
          "name": "account",
          "type": "address"
        }
      ],
      "name": "OwnableUnauthorizedAccount",
      "type": "error"
    },
    {
      "inputs": [
        {
          "internalType": "address",
          "name": "token",
          "type": "address"
        }
      ],
      "name": "SafeERC20FailedOperation",
      "type": "error"
    },
    {
      "anonymous": false,
      "inputs": [
        {
          "indexed": true,
          "internalType": "address",
          "name": "user",
          "type": "address"
        },
        {
          "indexed": false,
          "internalType": "uint256",
          "name": "amount",
          "type": "uint256"
        }
      ],
      "name": "Deposited",
      "type": "event"
    },
    {
      "anonymous": false,
      "inputs": [
        {
          "indexed": true,
          "internalType": "address",
          "name": "borrower",
          "type": "address"
        },
        {
          "indexed": false,
          "internalType": "uint256",
          "name": "amount",
          "type": "uint256"
        }
      ],
      "name": "LoanFunded",
      "type": "event"
    },
    {
      "anonymous": false,
      "inputs": [
        {
          "indexed": true,
          "internalType": "address",
          "name": "previousOwner",
          "type": "address"
        },
        {
          "indexed": true,
          "internalType": "address",
          "name": "newOwner",
          "type": "address"
        }
      ],
      "name": "OwnershipTransferred",
      "type": "event"
    },
    {
      "anonymous": false,
      "inputs": [
        {
          "indexed": true,
          "internalType": "address",
          "name": "borrower",
          "type": "address"
        },
        {
          "indexed": false,
          "internalType": "uint256",
          "name": "amount",
          "type": "uint256"
        }
      ],
      "name": "RepaymentReceived",
      "type": "event"
    },
    {
      "anonymous": false,
      "inputs": [
        {
          "indexed": true,
          "internalType": "address",
          "name": "user",
          "type": "address"
        },
        {
          "indexed": false,
          "internalType": "uint256",
          "name": "amount",
          "type": "uint256"
        }
      ],
      "name": "Withdrawn",
      "type": "event"
    },
    {
      "inputs": [
        {
          "internalType": "uint256",
          "name": "amount",
          "type": "uint256"
        }
      ],
      "name": "deposit",
      "outputs": [],
      "stateMutability": "nonpayable",
      "type": "function"
    },
    {
      "inputs": [],
      "name": "factory",
      "outputs": [
        {
          "internalType": "address",
          "name": "",
          "type": "address"
        }
      ],
      "stateMutability": "view",
      "type": "function"
    },
    {
      "inputs": [
        {
          "internalType": "address",
          "name": "borrower",
          "type": "address"
        },
        {
          "internalType": "uint256",
          "name": "amount",
          "type": "uint256"
        }
      ],
      "name": "fundLoan",
      "outputs": [],
      "stateMutability": "nonpayable",
      "type": "function"
    },
    {
      "inputs": [],
      "name": "owner",
      "outputs": [
        {
          "internalType": "address",
          "name": "",
          "type": "address"
        }
      ],
      "stateMutability": "view",
      "type": "function"
    },
    {
      "inputs": [],
      "name": "renounceOwnership",
      "outputs": [],
      "stateMutability": "nonpayable",
      "type": "function"
    },
    {
      "inputs": [],
      "name": "repay",
      "outputs": [],
      "stateMutability": "nonpayable",
      "type": "function"
    },
    {
      "inputs": [
        {
          "internalType": "address",
          "name": "_factory",
          "type": "address"
        }
      ],
      "name": "setFactory",
      "outputs": [],
      "stateMutability": "nonpayable",
      "type": "function"
    },
    {
      "inputs": [],
      "name": "totalDeposits",
      "outputs": [
        {
          "internalType": "uint256",
          "name": "",
          "type": "uint256"
        }
      ],
      "stateMutability": "view",
      "type": "function"
    },
    {
      "inputs": [
        {
          "internalType": "address",
          "name": "newOwner",
          "type": "address"
        }
      ],
      "name": "transferOwnership",
      "outputs": [],
      "stateMutability": "nonpayable",
      "type": "function"
    },
    {
      "inputs": [],
      "name": "usdc",
      "outputs": [
        {
          "internalType": "contract IERC20",
          "name": "",
          "type": "address"
        }
      ],
      "stateMutability": "view",
      "type": "function"
    },
    {
      "inputs": [
        {
          "internalType": "address",
          "name": "",
          "type": "address"
        }
      ],
      "name": "userDeposits",
      "outputs": [
        {
          "internalType": "uint256",
          "name": "",
          "type": "uint256"
        }
      ],
      "stateMutability": "view",
      "type": "function"
    },
    {
      "inputs": [
        {
          "internalType": "uint256",
          "name": "amount",
          "type": "uint256"
        }
      ],
      "name": "withdraw",
      "outputs": [],
      "stateMutability": "nonpayable",
      "type": "function"
    }
  ],
  "bytecode": "0x60806040523480156200001157600080fd5b50604051620014c3380380620014c3833981810160405281019062000037919062000235565b33600073ffffffffffffffffffffffffffffffffffffffff168173ffffffffffffffffffffffffffffffffffffffff1603620000ad5760006040517f1e4fbdf7000000000000000000000000000000000000000000000000000000008152600401620000a4919062000278565b60405180910390fd5b620000be816200010760201b60201c565b5080600160006101000a81548173ffffffffffffffffffffffffffffffffffffffff021916908373ffffffffffffffffffffffffffffffffffffffff1602179055505062000295565b60008060009054906101000a900473ffffffffffffffffffffffffffffffffffffffff169050816000806101000a81548173ffffffffffffffffffffffffffffffffffffffff021916908373ffffffffffffffffffffffffffffffffffffffff1602179055508173ffffffffffffffffffffffffffffffffffffffff168173ffffffffffffffffffffffffffffffffffffffff167f8be0079c531659141344cd1fd0a4f28419497f9722a3daafe3b4186f6b6457e060405160405180910390a35050565b600080fd5b600073ffffffffffffffffffffffffffffffffffffffff82169050919050565b6000620001fd82620001d0565b9050919050565b6200020f81620001f0565b81146200021b57600080fd5b50565b6000815190506200022f8162000204565b92915050565b6000602082840312156200024e576200024d620001cb565b5b60006200025e848285016200021e565b91505092915050565b6200027281620001f0565b82525050565b60006020820190506200028f600083018462000267565b92915050565b61121e80620002a56000396000f3fe608060405234801561001057600080fd5b50600436106100b45760003560e01c80637d882097116100715780637d882097146101535780638da5cb5b14610171578063b6b55f251461018f578063c45a0155146101ab578063e920b1e1146101c9578063f2fde38b146101e5576100b4565b80630ba36dcd146100b95780632e1a7d4d146100e95780633e413bee14610105578063402d8883146101235780635bb478081461012d578063715018a614610149575b600080fd5b6100d360048036038101906100ce9190610ce4565b610201565b6040516100e09190610d2a565b60405180910390f35b61010360048036038101906100fe9190610d71565b610219565b005b61010d6104c9565b60405161011a9190610dfd565b60405180910390f35b61012b6104ef565b005b61014760048036038101906101429190610ce4565b6104f1565b005b61015161053d565b005b61015b610551565b6040516101689190610d2a565b60405180910390f35b610179610557565b6040516101869190610e27565b60405180910390f35b6101a960048036038101906101a49190610d71565b610580565b005b6101b36106d2565b6040516101c09190610e27565b60405180910390f35b6101e360048036038101906101de9190610e42565b6106f8565b005b6101ff60048036038101906101fa9190610ce4565b610905565b005b60046020528060005260406000206000915090505481565b6000811161025c576040517f08c379a000000000000000000000000000000000000000000000000000000000815260040161025390610edf565b60405180910390fd5b80600460003373ffffffffffffffffffffffffffffffffffffffff1673ffffffffffffffffffffffffffffffffffffffff1681526020019081526020016000205410156102de576040517f08c379a00000000000000000000000000000000000000000000000000000000081526004016102d590610f4b565b60405180910390fd5b80600160009054906101000a900473ffffffffffffffffffffffffffffffffffffffff1673ffffffffffffffffffffffffffffffffffffffff166370a08231306040518263ffffffff1660e01b815260040161033a9190610e27565b602060405180830381865afa158015610357573d6000803e3d6000fd5b505050506040513d601f19601f8201168201806040525081019061037b9190610f80565b10156103bc576040517f08c379a00000000000000000000000000000000000000000000000000000000081526004016103b390610ff9565b60405180910390fd5b80600460003373ffffffffffffffffffffffffffffffffffffffff1673ffffffffffffffffffffffffffffffffffffffff168152602001908152602001600020600082825461040b9190611048565b9250508190555080600360008282546104249190611048565b925050819055506104783382600160009054906101000a900473ffffffffffffffffffffffffffffffffffffffff1673ffffffffffffffffffffffffffffffffffffffff1661098b9092919063ffffffff16565b3373ffffffffffffffffffffffffffffffffffffffff167f7084f5476618d8e60b11ef0d7d3f06914655adb8793e28ff7f018d4c76d505d5826040516104be9190610d2a565b60405180910390a250565b600160009054906101000a900473ffffffffffffffffffffffffffffffffffffffff1681565b565b6104f9610a0a565b80600260006101000a81548173ffffffffffffffffffffffffffffffffffffffff021916908373ffffffffffffffffffffffffffffffffffffffff16021790555050565b610545610a0a565b61054f6000610a91565b565b60035481565b60008060009054906101000a900473ffffffffffffffffffffffffffffffffffffffff16905090565b600081116105c3576040517f08c379a00000000000000000000000000000000000000000000000000000000081526004016105ba90610edf565b60405180910390fd5b610612333083600160009054906101000a900473ffffffffffffffffffffffffffffffffffffffff1673ffffffffffffffffffffffffffffffffffffffff16610b55909392919063ffffffff16565b80600460003373ffffffffffffffffffffffffffffffffffffffff1673ffffffffffffffffffffffffffffffffffffffff1681526020019081526020016000206000828254610661919061107c565b92505081905550806003600082825461067a919061107c565b925050819055503373ffffffffffffffffffffffffffffffffffffffff167f2da466a7b24304f47e87fa2e1e5a81b9831ce54fec19055ce277ca2f39ba42c4826040516106c79190610d2a565b60405180910390a250565b600260009054906101000a900473ffffffffffffffffffffffffffffffffffffffff1681565b600260009054906101000a900473ffffffffffffffffffffffffffffffffffffffff1673ffffffffffffffffffffffffffffffffffffffff163373ffffffffffffffffffffffffffffffffffffffff1614610788576040517f08c379a000000000000000000000000000000000000000000000000000000000815260040161077f906110fc565b60405180910390fd5b80600160009054906101000a900473ffffffffffffffffffffffffffffffffffffffff1673ffffffffffffffffffffffffffffffffffffffff166370a08231306040518263ffffffff1660e01b81526004016107e49190610e27565b602060405180830381865afa158015610801573d6000803e3d6000fd5b505050506040513d601f19601f820116820180604052508101906108259190610f80565b1015610866576040517f08c379a000000000000000000000000000000000000000000000000000000000815260040161085d90611168565b60405180910390fd5b6108b38282600160009054906101000a900473ffffffffffffffffffffffffffffffffffffffff1673ffffffffffffffffffffffffffffffffffffffff1661098b9092919063ffffffff16565b8173ffffffffffffffffffffffffffffffffffffffff167f726d5f1a838fe31748f737fa3ae5539ccff95952adfc593a1299532b643ff7a8826040516108f99190610d2a565b60405180910390a25050565b61090d610a0a565b600073ffffffffffffffffffffffffffffffffffffffff168173ffffffffffffffffffffffffffffffffffffffff160361097f5760006040517f1e4fbdf70000000000000000000000000000000000000000000000000000000081526004016109769190610e27565b60405180910390fd5b61098881610a91565b50565b610a05838473ffffffffffffffffffffffffffffffffffffffff1663a9059cbb85856040516024016109be929190611188565b604051602081830303815290604052915060e01b6020820180517bffffffffffffffffffffffffffffffffffffffffffffffffffffffff8381831617835250505050610bd7565b505050565b610a12610c79565b73ffffffffffffffffffffffffffffffffffffffff16610a30610557565b73ffffffffffffffffffffffffffffffffffffffff1614610a8f57610a53610c79565b6040517f118cdaa7000000000000000000000000000000000000000000000000000000008152600401610a869190610e27565b60405180910390fd5b565b60008060009054906101000a900473ffffffffffffffffffffffffffffffffffffffff169050816000806101000a81548173ffffffffffffffffffffffffffffffffffffffff021916908373ffffffffffffffffffffffffffffffffffffffff1602179055508173ffffffffffffffffffffffffffffffffffffffff168173ffffffffffffffffffffffffffffffffffffffff167f8be0079c531659141344cd1fd0a4f28419497f9722a3daafe3b4186f6b6457e060405160405180910390a35050565b610bd1848573ffffffffffffffffffffffffffffffffffffffff166323b872dd868686604051602401610b8a939291906111b1565b604051602081830303815290604052915060e01b6020820180517bffffffffffffffffffffffffffffffffffffffffffffffffffffffff8381831617835250505050610bd7565b50505050565b600080602060008451602086016000885af180610bfa576040513d6000823e3d81fd5b3d925060005191505060008214610c15576001811415610c31565b60008473ffffffffffffffffffffffffffffffffffffffff163b145b15610c7357836040517f5274afe7000000000000000000000000000000000000000000000000000000008152600401610c6a9190610e27565b60405180910390fd5b50505050565b600033905090565b600080fd5b600073ffffffffffffffffffffffffffffffffffffffff82169050919050565b6000610cb182610c86565b9050919050565b610cc181610ca6565b8114610ccc57600080fd5b50565b600081359050610cde81610cb8565b92915050565b600060208284031215610cfa57610cf9610c81565b5b6000610d0884828501610ccf565b91505092915050565b6000819050919050565b610d2481610d11565b82525050565b6000602082019050610d3f6000830184610d1b565b92915050565b610d4e81610d11565b8114610d5957600080fd5b50565b600081359050610d6b81610d45565b92915050565b600060208284031215610d8757610d86610c81565b5b6000610d9584828501610d5c565b91505092915050565b6000819050919050565b6000610dc3610dbe610db984610c86565b610d9e565b610c86565b9050919050565b6000610dd582610da8565b9050919050565b6000610de782610dca565b9050919050565b610df781610ddc565b82525050565b6000602082019050610e126000830184610dee565b92915050565b610e2181610ca6565b82525050565b6000602082019050610e3c6000830184610e18565b92915050565b60008060408385031215610e5957610e58610c81565b5b6000610e6785828601610ccf565b9250506020610e7885828601610d5c565b9150509250929050565b600082825260208201905092915050565b7f416d6f756e74206d757374206265203e20300000000000000000000000000000600082015250565b6000610ec9601283610e82565b9150610ed482610e93565b602082019050919050565b60006020820190508181036000830152610ef881610ebc565b9050919050565b7f496e73756666696369656e74206465706f7369742062616c616e636500000000600082015250565b6000610f35601c83610e82565b9150610f4082610eff565b602082019050919050565b60006020820190508181036000830152610f6481610f28565b9050919050565b600081519050610f7a81610d45565b92915050565b600060208284031215610f9657610f95610c81565b5b6000610fa484828501610f6b565b91505092915050565b7f496e73756666696369656e74207661756c74206c697175696469747900000000600082015250565b6000610fe3601c83610e82565b9150610fee82610fad565b602082019050919050565b6000602082019050818103600083015261101281610fd6565b9050919050565b7f4e487b7100000000000000000000000000000000000000000000000000000000600052601160045260246000fd5b600061105382610d11565b915061105e83610d11565b925082820390508181111561107657611075611019565b5b92915050565b600061108782610d11565b915061109283610d11565b92508282019050808211156110aa576110a9611019565b5b92915050565b7f4f6e6c7920466163746f72792063616e2066756e64206c6f616e730000000000600082015250565b60006110e6601b83610e82565b91506110f1826110b0565b602082019050919050565b60006020820190508181036000830152611115816110d9565b9050919050565b7f496e73756666696369656e74206c697175696469747900000000000000000000600082015250565b6000611152601683610e82565b915061115d8261111c565b602082019050919050565b6000602082019050818103600083015261118181611145565b9050919050565b600060408201905061119d6000830185610e18565b6111aa6020830184610d1b565b9392505050565b60006060820190506111c66000830186610e18565b6111d36020830185610e18565b6111e06040830184610d1b565b94935050505056fea2646970667358221220dda4cfa14df8da5e1ec3c20a4fb73ce46102a49f2b78f1cdd413bf8d38909b8e64736f6c63430008140033",
  "linkReferences": {},
  "deployedLinkReferences": {}
}